:100000000C9434000C9451000C9451000C94510049
:100010000C9451000C9451000C9451000C9451001C
:100020000C9451000C9451000C9451000C9451000C
:100030000C9451000C9451000C9451000C945100FC
:100040000C9451000C9451000C9453000C947200C9
:100050000C9451000C9451000C9451000C945100DC
:100060000C9451000C94510011241FBECFEFD8E026
:10007000DEBFCDBF11E0A0E0B1E0ECE3F1E002C0F3
:1000800005900D92A030B107D9F723E0A0E0B1E0D0
:1000900001C01D92A430B207E1F70E949B000C94AE
:1000A0009C000C9400001F920F920FB60F92112427
:1000B0008F939F93EF93FF938091C600E09103028B
:1000C000EF5FE093030290910202F0E0EC5FFD4FDE
:1000D0008083FF91EF919F918F910F900FBE0F90B2
:1000E0001F9018951F920F920FB60F9211248F93A5
:1000F0009F93EF93FF9390910101809100019817D6
:1001000061F0E0910001EF5FE0930001F0E0EE5F4D
:10011000FE4F80818093C60005C0E1ECF0E0808155
:100120008F7D8083FF91EF919F918F910F900FBEF4
:0C0130000F901F901895FFCFF894FFCFA0
:00000001FF
